{
  "address": "0xAc10a5446cC582dFC040F0defA8AF24C77F5c837",
  "abi": [
    {
      "inputs": [
        {
          "internalType": "address",
          "name": "_vrfCoordinator",
          "type": "address"
        },
        {
          "internalType": "uint256",
          "name": "entranceFee",
          "type": "uint256"
        },
        {
          "internalType": "bytes32",
          "name": "gasLane",
          "type": "bytes32"
        },
        {
          "internalType": "uint64",
          "name": "subscriptionId",
          "type": "uint64"
        },
        {
          "internalType": "uint32",
          "name": "callbackGasLimit",
          "type": "uint32"
        },
        {
          "internalType": "uint256",
          "name": "interval",
          "type": "uint256"
        }
      ],
      "stateMutability": "nonpayable",
      "type": "constructor"
    },
    {
      "inputs": [],
      "name": "Lottery__NotEnoughEntranceFee",
      "type": "error"
    },
    {
      "inputs": [],
      "name": "Lottery__NotOpen",
      "type": "error"
    },
    {
      "inputs": [],
      "name": "Lottery__TransferFailed",
      "type": "error"
    },
    {
      "inputs": [
        {
          "internalType": "uint256",
          "name": "lotteryStatus",
          "type": "uint256"
        },
        {
          "internalType": "uint256",
          "name": "numPlayers",
          "type": "uint256"
        },
        {
          "internalType": "uint256",
          "name": "currentBalance",
          "type": "uint256"
        }
      ],
      "name": "Lottery__UpkeepNotNeeded",
      "type": "error"
    },
    {
      "inputs": [
        {
          "internalType": "address",
          "name": "have",
          "type": "address"
        },
        {
          "internalType": "address",
          "name": "want",
          "type": "address"
        }
      ],
      "name": "OnlyCoordinatorCanFulfill",
      "type": "error"
    },
    {
      "anonymous": false,
      "inputs": [
        {
          "indexed": true,
          "internalType": "address",
          "name": "player",
          "type": "address"
        }
      ],
      "name": "LotterEnter",
      "type": "event"
    },
    {
      "anonymous": false,
      "inputs": [
        {
          "indexed": true,
          "internalType": "uint256",
          "name": "requestId",
          "type": "uint256"
        }
      ],
      "name": "requestedLotteryWinner",
      "type": "event"
    },
    {
      "anonymous": false,
      "inputs": [
        {
          "indexed": false,
          "internalType": "address",
          "name": "winner",
          "type": "address"
        }
      ],
      "name": "winnerPicked",
      "type": "event"
    },
    {
      "inputs": [
        {
          "internalType": "bytes",
          "name": "",
          "type": "bytes"
        }
      ],
      "name": "checkUpkeep",
      "outputs": [
        {
          "internalType": "bool",
          "name": "upkeepNeeded",
          "type": "bool"
        },
        {
          "internalType": "bytes",
          "name": "",
          "type": "bytes"
        }
      ],
      "stateMutability": "view",
      "type": "function"
    },
    {
      "inputs": [],
      "name": "entryLottery",
      "outputs": [],
      "stateMutability": "payable",
      "type": "function"
    },
    {
      "inputs": [],
      "name": "getEntranceFee",
      "outputs": [
        {
          "internalType": "uint256",
          "name": "",
          "type": "uint256"
        }
      ],
      "stateMutability": "view",
      "type": "function"
    },
    {
      "inputs": [],
      "name": "getInterval",
      "outputs": [
        {
          "internalType": "uint256",
          "name": "",
          "type": "uint256"
        }
      ],
      "stateMutability": "view",
      "type": "function"
    },
    {
      "inputs": [],
      "name": "getLastTimestamp",
      "outputs": [
        {
          "internalType": "uint256",
          "name": "",
          "type": "uint256"
        }
      ],
      "stateMutability": "view",
      "type": "function"
    },
    {
      "inputs": [],
      "name": "getLotteryStatus",
      "outputs": [
        {
          "internalType": "enum Lottery.LotteryStatus",
          "name": "",
          "type": "uint8"
        }
      ],
      "stateMutability": "view",
      "type": "function"
    },
    {
      "inputs": [],
      "name": "getNumWords",
      "outputs": [
        {
          "internalType": "uint256",
          "name": "",
          "type": "uint256"
        }
      ],
      "stateMutability": "pure",
      "type": "function"
    },
    {
      "inputs": [
        {
          "internalType": "uint256",
          "name": "index",
          "type": "uint256"
        }
      ],
      "name": "getPlayer",
      "outputs": [
        {
          "internalType": "address",
          "name": "",
          "type": "address"
        }
      ],
      "stateMutability": "view",
      "type": "function"
    },
    {
      "inputs": [],
      "name": "getPlayersNumber",
      "outputs": [
        {
          "internalType": "uint256",
          "name": "",
          "type": "uint256"
        }
      ],
      "stateMutability": "view",
      "type": "function"
    },
    {
      "inputs": [],
      "name": "getRecentWinner",
      "outputs": [
        {
          "internalType": "address",
          "name": "",
          "type": "address"
        }
      ],
      "stateMutability": "view",
      "type": "function"
    },
    {
      "inputs": [],
      "name": "getRequestConfirmations",
      "outputs": [
        {
          "internalType": "uint256",
          "name": "",
          "type": "uint256"
        }
      ],
      "stateMutability": "pure",
      "type": "function"
    },
    {
      "inputs": [
        {
          "internalType": "bytes",
          "name": "",
          "type": "bytes"
        }
      ],
      "name": "performUpkeep",
      "outputs": [],
      "stateMutability": "nonpayable",
      "type": "function"
    },
    {
      "inputs": [
        {
          "internalType": "uint256",
          "name": "requestId",
          "type": "uint256"
        },
        {
          "internalType": "uint256[]",
          "name": "randomWords",
          "type": "uint256[]"
        }
      ],
      "name": "rawFulfillRandomWords",
      "outputs": [],
      "stateMutability": "nonpayable",
      "type": "function"
    }
  ],
  "transactionHash": "0x2c445897047ea182374e67cc3c2b29f25cad2fd7ccdfeb8b2312def3737c28fb",
  "args": [
    "0x8103B0A8A00be2DDC778e6e7eaa21791Cd364625",
    "10000000000000000",
    "0x474e34a077df58807dbe9c96d3c009b23b3c6d0cce433e59bbf5b34f823bc56c",
    "1538",
    "500000",
    "30"
  ],
  "numDeployments": 2,
  "solcInputHash": "a5610e9d848b75ec29e4b02550c7c57a",
  "bytecode": "0x6101606040523480156200001257600080fd5b50604051620017ec380380620017ec833981810160405281019062000038919062000294565b858073ffffffffffffffffffffffffffffffffffffffff1660808173ffffffffffffffffffffffffffffffffffffffff1681525050508460a081815250508573ffffffffffffffffffffffffffffffffffffffff1660c08173ffffffffffffffffffffffffffffffffffffffff16815250508360e081815250508267ffffffffffffffff166101008167ffffffffffffffff16815250508163ffffffff166101208163ffffffff16815250506000600160146101000a81548160ff021916908360018111156200010d576200010c62000330565b5b0217905550426002819055508061014081815250505050505050506200035f565b600080fd5b600073ffffffffffffffffffffffffffffffffffffffff82169050919050565b6000620001608262000133565b9050919050565b620001728162000153565b81146200017e57600080fd5b50565b600081519050620001928162000167565b92915050565b6000819050919050565b620001ad8162000198565b8114620001b957600080fd5b50565b600081519050620001cd81620001a2565b92915050565b6000819050919050565b620001e881620001d3565b8114620001f457600080fd5b50565b6000815190506200020881620001dd565b92915050565b600067ffffffffffffffff82169050919050565b6200022d816200020e565b81146200023957600080fd5b50565b6000815190506200024d8162000222565b92915050565b600063ffffffff82169050919050565b6200026e8162000253565b81146200027a57600080fd5b50565b6000815190506200028e8162000263565b92915050565b60008060008060008060c08789031215620002b457620002b36200012e565b5b6000620002c489828a0162000181565b9650506020620002d789828a01620001bc565b9550506040620002ea89828a01620001f7565b9450506060620002fd89828a016200023c565b93505060806200031089828a016200027d565b92505060a06200032389828a01620001bc565b9150509295509295509295565b7f4e487b7100000000000000000000000000000000000000000000000000000000600052602160045260246000fd5b60805160a05160c05160e051610100516101205161014051611416620003d66000396000818161043f015281816106e9015261076501526000610513015260006104f0015260006104cf015260006104930152600081816102fa015261078b015260008181610320015261037401526114166000f3fe6080604052600436106100c25760003560e01c806353a2c19a1161007f578063766eef1111610059578063766eef111461025957806391ad27b414610284578063cae3acaf146102af578063e55ae4e8146102b9576100c2565b806353a2c19a146101c55780635f1b0fd8146101f05780636e04ff0d1461021b576100c2565b806309bc33a7146100c75780631fe543e3146100f25780632b6524cd1461011b57806337899770146101465780634585e33b14610171578063473f1ddc1461019a575b600080fd5b3480156100d357600080fd5b506100dc6102f6565b6040516100e99190610c24565b60405180910390f35b3480156100fe57600080fd5b5061011960048036038101906101149190610dd8565b61031e565b005b34801561012757600080fd5b506101306103de565b60405161013d9190610eab565b60405180910390f35b34801561015257600080fd5b5061015b6103f5565b6040516101689190610c24565b60405180910390f35b34801561017d57600080fd5b5061019860048036038101906101939190610f21565b6103ff565b005b3480156101a657600080fd5b506101af610661565b6040516101bc9190610faf565b60405180910390f35b3480156101d157600080fd5b506101da61068b565b6040516101e79190610c24565b60405180910390f35b3480156101fc57600080fd5b5061020561069a565b6040516102129190610c24565b60405180910390f35b34801561022757600080fd5b50610242600480360381019061023d9190610f21565b6106a7565b604051610250929190611064565b60405180910390f35b34801561026557600080fd5b5061026e610755565b60405161027b9190610c24565b60405180910390f35b34801561029057600080fd5b50610299610761565b6040516102a69190610c24565b60405180910390f35b6102b7610789565b005b3480156102c557600080fd5b506102e060048036038101906102db9190611094565b6108f8565b6040516102ed9190610faf565b60405180910390f35b60007f0000000000000000000000000000000000000000000000000000000000000000905090565b7f000000000000000000000000000000000000000000000000000000000000000073ffffffffffffffffffffffffffffffffffffffff163373ffffffffffffffffffffffffffffffffffffffff16146103d057337f00000000000000000000000000000000000000000000000000000000000000006040517f1cf993f40000000000000000000000000000000000000000000000000000000081526004016103c79291906110c1565b60405180910390fd5b6103da828261093f565b5050565b6000600160149054906101000a900460ff16905090565b6000600254905090565b6000600181111561041357610412610e34565b5b600160149054906101000a900460ff16600181111561043557610434610e34565b5b14801561046e57507f00000000000000000000000000000000000000000000000000000000000000006002544261046c9190611119565b115b801561047e575060008080549050115b801561048a5750600047115b156105f65760007f000000000000000000000000000000000000000000000000000000000000000073ffffffffffffffffffffffffffffffffffffffff16635d3b1d307f00000000000000000000000000000000000000000000000000000000000000007f000000000000000000000000000000000000000000000000000000000000000060037f000000000000000000000000000000000000000000000000000000000000000060016040518663ffffffff1660e01b81526004016105549594939291906111c5565b6020604051808303816000875af1158015610573573d6000803e3d6000fd5b505050506040513d601f19601f82011682018060405250810190610597919061122d565b9050807f8436886e362e85384c64d5af46721d434cb451102c48870819d9f8420f55317660405160405180910390a260018060146101000a81548160ff021916908360018111156105eb576105ea610e34565b5b02179055505061065d565b600160149054906101000a900460ff16600181111561061857610617610e34565b5b600080549050476040517f6e195f250000000000000000000000000000000000000000000000000000000081526004016106549392919061125a565b60405180910390fd5b5050565b6000600160009054906101000a900473ffffffffffffffffffffffffffffffffffffffff16905090565b6000600163ffffffff16905090565b6000600361ffff16905090565b6000606060008060018111156106c0576106bf610e34565b5b600160149054906101000a900460ff1660018111156106e2576106e1610e34565b5b14905060007f0000000000000000000000000000000000000000000000000000000000000000600254426107169190611119565b119050600080600080549050119050600080471190508380156107365750825b801561073f5750815b80156107485750805b9550505050509250929050565b60008080549050905090565b60007f0000000000000000000000000000000000000000000000000000000000000000905090565b7f00000000000000000000000000000000000000000000000000000000000000003410156107e3576040517fd843bb4b00000000000000000000000000000000000000000000000000000000815260040160405180910390fd5b600060018111156107f7576107f6610e34565b5b600160149054906101000a900460ff16600181111561081957610818610e34565b5b14610850576040517fe76be6fc00000000000000000000000000000000000000000000000000000000815260040160405180910390fd5b6000339080600181540180825580915050600190039060005260206000200160009091909190916101000a81548173ffffffffffffffffffffffffffffffffffffffff021916908373ffffffffffffffffffffffffffffffffffffffff1602179055503373ffffffffffffffffffffffffffffffffffffffff167fcfe396faec77b3c27edce0bdc8bc39997f6c5cae2906051cb08b9278c53a556a60405160405180910390a2565b600080828154811061090d5761090c611291565b5b9060005260206000200160009054906101000a900473ffffffffffffffffffffffffffffffffffffffff169050919050565b600080805490508260008151811061095a57610959611291565b5b602002602001015161096c91906112ef565b9050600080828154811061098357610982611291565b5b9060005260206000200160009054906101000a900473ffffffffffffffffffffffffffffffffffffffff16905080600160006101000a81548173ffffffffffffffffffffffffffffffffffffffff021916908373ffffffffffffffffffffffffffffffffffffffff16021790555060008173ffffffffffffffffffffffffffffffffffffffff1647604051610a1790611351565b60006040518083038185875af1925050503d8060008114610a54576040519150601f19603f3d011682016040523d82523d6000602084013e610a59565b606091505b5050905080610a94576040517f1c94012000000000000000000000000000000000000000000000000000000000815260040160405180910390fd5b7f794919b0f484b8e90b1b817ac7f880f846fbd8a9813dee2a378e820db094e3d182604051610ac391906113c5565b60405180910390a16000600160146101000a81548160ff02191690836001811115610af157610af0610e34565b5b0217905550600067ffffffffffffffff811115610b1157610b10610c95565b5b604051908082528060200260200182016040528015610b3f5781602001602082028036833780820191505090505b5060009080519060200190610b55929190610b64565b50426002819055505050505050565b828054828255906000526020600020908101928215610bdd579160200282015b82811115610bdc5782518260006101000a81548173ffffffffffffffffffffffffffffffffffffffff021916908373ffffffffffffffffffffffffffffffffffffffff16021790555091602001919060010190610b84565b5b509050610bea9190610bee565b5090565b5b80821115610c07576000816000905550600101610bef565b5090565b6000819050919050565b610c1e81610c0b565b82525050565b6000602082019050610c396000830184610c15565b92915050565b6000604051905090565b600080fd5b600080fd5b610c5c81610c0b565b8114610c6757600080fd5b50565b600081359050610c7981610c53565b92915050565b600080fd5b6000601f19601f8301169050919050565b7f4e487b7100000000000000000000000000000000000000000000000000000000600052604160045260246000fd5b610ccd82610c84565b810181811067ffffffffffffffff82111715610cec57610ceb610c95565b5b80604052505050565b6000610cff610c3f565b9050610d0b8282610cc4565b919050565b600067ffffffffffffffff821115610d2b57610d2a610c95565b5b602082029050602081019050919050565b600080fd5b6000610d54610d4f84610d10565b610cf5565b90508083825260208201905060208402830185811115610d7757610d76610d3c565b5b835b81811015610da05780610d8c8882610c6a565b845260208401935050602081019050610d79565b5050509392505050565b600082601f830112610dbf57610dbe610c7f565b5b8135610dcf848260208601610d41565b91505092915050565b60008060408385031215610def57610dee610c49565b5b6000610dfd85828601610c6a565b925050602083013567ffffffffffffffff811115610e1e57610e1d610c4e565b5b610e2a85828601610daa565b9150509250929050565b7f4e487b7100000000000000000000000000000000000000000000000000000000600052602160045260246000fd5b60028110610e7457610e73610e34565b5b50565b6000819050610e8582610e63565b919050565b6000610e9582610e77565b9050919050565b610ea581610e8a565b82525050565b6000602082019050610ec06000830184610e9c565b92915050565b600080fd5b60008083601f840112610ee157610ee0610c7f565b5b8235905067ffffffffffffffff811115610efe57610efd610ec6565b5b602083019150836001820283011115610f1a57610f19610d3c565b5b9250929050565b60008060208385031215610f3857610f37610c49565b5b600083013567ffffffffffffffff811115610f5657610f55610c4e565b5b610f6285828601610ecb565b92509250509250929050565b600073ffffffffffffffffffffffffffffffffffffffff82169050919050565b6000610f9982610f6e565b9050919050565b610fa981610f8e565b82525050565b6000602082019050610fc46000830184610fa0565b92915050565b60008115159050919050565b610fdf81610fca565b82525050565b600081519050919050565b600082825260208201905092915050565b60005b8381101561101f578082015181840152602081019050611004565b60008484015250505050565b600061103682610fe5565b6110408185610ff0565b9350611050818560208601611001565b61105981610c84565b840191505092915050565b60006040820190506110796000830185610fd6565b818103602083015261108b818461102b565b90509392505050565b6000602082840312156110aa576110a9610c49565b5b60006110b884828501610c6a565b91505092915050565b60006040820190506110d66000830185610fa0565b6110e36020830184610fa0565b9392505050565b7f4e487b7100000000000000000000000000000000000000000000000000000000600052601160045260246000fd5b600061112482610c0b565b915061112f83610c0b565b9250828203905081811115611147576111466110ea565b5b92915050565b6000819050919050565b6111608161114d565b82525050565b600067ffffffffffffffff82169050919050565b61118381611166565b82525050565b600061ffff82169050919050565b6111a081611189565b82525050565b600063ffffffff82169050919050565b6111bf816111a6565b82525050565b600060a0820190506111da6000830188611157565b6111e7602083018761117a565b6111f46040830186611197565b61120160608301856111b6565b61120e60808301846111b6565b9695505050505050565b60008151905061122781610c53565b92915050565b60006020828403121561124357611242610c49565b5b600061125184828501611218565b91505092915050565b600060608201905061126f6000830186610c15565b61127c6020830185610c15565b6112896040830184610c15565b949350505050565b7f4e487b7100000000000000000000000000000000000000000000000000000000600052603260045260246000fd5b7f4e487b7100000000000000000000000000000000000000000000000000000000600052601260045260246000fd5b60006112fa82610c0b565b915061130583610c0b565b925082611315576113146112c0565b5b828206905092915050565b600081905092915050565b50565b600061133b600083611320565b91506113468261132b565b600082019050919050565b600061135c8261132e565b9150819050919050565b6000819050919050565b600061138b61138661138184610f6e565b611366565b610f6e565b9050919050565b600061139d82611370565b9050919050565b60006113af82611392565b9050919050565b6113bf816113a4565b82525050565b60006020820190506113da60008301846113b6565b9291505056fea264697066735822122074ae7894c825c6af29a0cb0c5b1840f1fbbbd7ed8320c06aa7aa19edd876fa5164736f6c63430008120033",
  "devdoc": {
    "author": "huxixi",
    "details": "chainlink VRFchainlink automation",
    "kind": "dev",
    "methods": {
      "checkUpkeep(bytes)": {
        "details": ""
      }
    },
    "title": "",
    "version": 1
  },
  "userdoc": {
    "kind": "user",
    "methods": {},
    "notice": "",
    "version": 1
  },
  "storageLayout": {
    "storage": [
      {
        "astId": 243,
        "contract": "contracts/Lottery.sol:Lottery",
        "label": "s_players",
        "offset": 0,
        "slot": "0",
        "type": "t_array(t_address_payable)dyn_storage"
      },
      {
        "astId": 260,
        "contract": "contracts/Lottery.sol:Lottery",
        "label": "s_recentWinner",
        "offset": 0,
        "slot": "1",
        "type": "t_address"
      },
      {
        "astId": 263,
        "contract": "contracts/Lottery.sol:Lottery",
        "label": "s_lotteryStatus",
        "offset": 20,
        "slot": "1",
        "type": "t_enum(LotteryStatus)238"
      },
      {
        "astId": 265,
        "contract": "contracts/Lottery.sol:Lottery",
        "label": "s_lastTimeStamp",
        "offset": 0,
        "slot": "2",
        "type": "t_uint256"
      }
    ],
    "types": {
      "t_address": {
        "encoding": "inplace",
        "label": "address",
        "numberOfBytes": "20"
      },
      "t_address_payable": {
        "encoding": "inplace",
        "label": "address payable",
        "numberOfBytes": "20"
      },
      "t_array(t_address_payable)dyn_storage": {
        "base": "t_address_payable",
        "encoding": "dynamic_array",
        "label": "address payable[]",
        "numberOfBytes": "32"
      },
      "t_enum(LotteryStatus)238": {
        "encoding": "inplace",
        "label": "enum Lottery.LotteryStatus",
        "numberOfBytes": "1"
      },
      "t_uint256": {
        "encoding": "inplace",
        "label": "uint256",
        "numberOfBytes": "32"
      }
    }
  }
}